:020000040800F2
:100000003804002001010008250D0008210A00081D
:10001000210D0008B50600082118000800000000A6
:10002000000000000000000000000000410F000878
:10003000B906000800000000290E0008F1100008B1
:100040001B0100081B0100081B0100081B01000820
:100050001B0100081B010008BD0600081B01000869
:100060001B0100081B0100081B0100081B01000800
:100070001B0100081B0100081B0100081B010008F0
:100080001B0100081B0100081B0100081B010008E0
:100090001B0100081B0100081B0100081B010008D0
:1000A0001B0100081B0100081B0100081B010008C0
:1000B000651100081B0100081B0100081B01000856
:1000C0001B0100081B0100081B0100081B010008A0
:1000D0001B0100081B0100081B0100081B01000890
:1000E0001B0100081B0100081B010008DFF80CD0F1
:1000F00000F09CFA00480047D5180008380400209A
:100100000648804706480047FEE7FEE7FEE7FEE7B1
:10011000FEE7FEE7FEE7FEE7FEE7FEE70511000863
:10012000ED000008F0B480EA0102D40F4200B2EB07
:10013000410F02D20246084611464A0042D0C30D82
:10014000DDB2C1F3C752AD1A202D35DAC1F3160165
:1001500041F4000204B15242C5F1200602FA06F150
:100160002A411044B3EBD05F23D0C4B1012DA0EBE2
:10017000C35009DCF0BC4FF0004202EAC352DBB2CC
:1001800000F5000000F0C7B9400000F1807000EBFE
:10019000C350A0F1807040EAD170490009E04908DD
:1001A00041EAC071A0EBC35000F50000400800EB2D
:1001B000C350F0BC00F0A6B96142012202EB41013C
:1001C000001BF6E7F0BC704781F00041AAE780F021
:1001D0000040A7E780EA010210B502F000434000AA
:1001E00022D04A001FD0010E01EB1261C0F356006D
:1001F000C2F3560240F4000042F40002A0FB0220C9
:1002000000047F39140400D0401C50EA124001D48D
:100210004000491EC2B20C0604EBD010401C40083E
:10022000802A02D003E0002010BD20F00100002948
:1002300000DA0020184310BD30B480EA010202F059
:10024000004530F0004221F0004013D090B1C30DC2
:10025000D40DC2F31601C0F31600E41A41F40001F4
:1002600040F400027D34914201D3641C00E0490057
:10027000002C02DA30BC002070474FF4000000234D
:10028000914201D3891A034340084FEA4101F7D153
:1002900051B1914202D14FF0004105E002D24FF03E
:1002A000010101E06FF0010103EBC450284430BCB0
:1002B00000F028B92DE9FE4F81EA030404F0004460
:1002C00021F0004100944FF0000B23F0004350EA6E
:1002D00001045ED052EA03045BD0C3F30A54C1F3B5
:1002E0000A552C44A4F2F3340194A0FB0254C1F348
:1002F000130141F48011C3F3130343F4801301FB92
:10030000024400FB034E840A970A44EA815447EAF8
:100310008357A4FB076802958D0A05FB07854FEA02
:10032000932C04FB0C542705029D4FEA065847EA1C
:100330001637B5EB08056EEB070C870E920E47EAF1
:10034000811742EA8312A7FB0201B6EB0B0164EBB3
:1003500000042B0D43EA0C335E1844EB1C50DA46C4
:100360005146E7FB0201C5F313044FEA0B3343EA9E
:1003700014534FEA0432019C43EA0603A4F10C042F
:100380000294009CCDE900B400F002F903B0BDE88E
:10039000F08F00200146F9E72DE9F04D81EA0304D2
:1003A00004F0004B21F0004514464FF0000A23F002
:1003B000004150EA050220D054EA01021DD0C5F3E5
:1003C0000A570246C5F31303C1F31300C1F30A56DB
:1003D00040F4801543F48013A7EB0608101BD646A3
:1003E00008F2FD3873EB050002D308F1010801E0C3
:1003F00092185B41B8F1000F03DA00200146BDE816
:10040000F08D00204FF48011064684460EE0171B45
:1004100073EB050705D3121B63EB050306434CEA98
:10042000010C49084FEA300092185B4150EA01077D
:10043000EDD152EA030012D082EA040083EA0501FA
:10044000084305D0101BAB4106D20122002306E071
:1004500000224FF0004302E06FF0010253101AEB4C
:1004600006004CEB085110EB0A0041EB0B01BDE814
:10047000F04D00F07EB80EB540F2334102910021FC
:10048000CDE900110A460B4600F082F803B000BD2A
:1004900000F0004230F000400AD0C10D01F560715B
:1004A000C0F3160042EA0151C208400711437047E9
:1004B00000200146704701F0004330B421F00041B4
:1004C00050EA010206D00A0DA2F56072C1F31301D1
:1004D000002A02DC30BC00207047440F44EAC1040B
:1004E000C100E01830BC00EBC25000F00BB80000B7
:1004F000002801DBC0F10040002901DBC1F100410F
:10050000814270470029A8BF7047401C490008BFBE
:1005100020F00100704710B4B0FA80FC00FA0CF033
:1005200050EA010404BF10BC704749B1CCF120046B
:1005300021FA04F411FA0CF118BF012121430843F8
:10054000A3EB0C01CB1D4FEA00614FEA102042BF24
:10055000002010BC704700EBC35010440029A4BF1A
:1005600010BC7047401C490008BF20F0010010BCBF
:10057000704710B5141E73F1000408DA401C41F1F5
:10058000000192185B411A4301D120F0010010BD17
:100590002DE9F04D92469B4611B1B1FA81F202E08D
:1005A000B0FA80F22032904600F052F804460F462E
:1005B00040EA0A0041EA0B0153465A46084313D069
:1005C000114653EA010019D0C8F14002504600F02C
:1005D0004EF805460E4650465946424600F038F859
:1005E000084305D0012004E020463946BDE8F08DDF
:1005F0000020054346EAE0762C4337430A9863051A
:10060000E40AA0EB08000022FD0A44EA47540A303D
:1006100002D500200146E9E7010510196941DDE92D
:10062000084500196941BDE8F04DA2E7064C074DA9
:1006300006E0E06840F0010394E8070098471034B2
:10064000AC42F6D3FFF756FD3019000850190008E8
:10065000202A04DB203A00FA02F100207047914082
:10066000C2F1200320FA03F3194390407047202A77
:1006700004DB203A21FA02F00021704721FA02F34C
:10068000D040C2F120029140084319467047000053
:1006900008B54FF48050ADF8000010208DF803002D
:1006A00003208DF802006946014800F0DDF808BD1E
:1006B000000C014000BFFEE7704700002DE9F0414B
:1006C000012000F04FF858B300214FF0804000F0B7
:1006D000FFFE0121880700F0AEFD00BF0121114897
:1006E00000F04DF90028F9D100214FF0804000F0D2
:1006F000A2FD4FF0804000F0AAFD8046FFF7BBFE50
:100700000646094A094BFFF7D5FD0446FFF7D3FE1D
:1007100007490860002007490870012000F01CF814
:10072000BDE8F081000801408DEDB5A0F7C6B03EF0
:100730002C000020280000201CB501200090002083
:100740008DF8040008208DF8050001208DF80600C2
:10075000684600F01BF81CBD0149086070470000A6
:1007600014040140014600200022074B1B6803EAE5
:100770000102054B14331B680B4013B10AB1012071
:1007800000E00020704700000004014000212349E0
:100790008279002A3AD00A46126803689A430B46C7
:1007A0001A600A1D126803689A430B1D1A600279C9
:1007B00011440A6803681A430A60184A083212682A
:1007C00003689A43154B08331A601A1D12680368B0
:1007D0009A43124B0C331A604279102A0ED11A1F19
:1007E000126803681A430D4B08331A601A1D126809
:1007F00003681A43094B0C331A600DE0074942792C
:1008000011440A6803681A430A6005E0027911443A
:100810000A6803689A430A607047000000040140B8
:1008200010B5FFF789FF10BD30B500228B071C0FF4
:100830000F2303FA04F20B4B8C1053F8243093432C
:10084000084C8D1044F8253023468C1053F8243082
:100850008C07240F00FA04F42343024C8D1044F853
:10086000253030BD080001402DE9F0410246002549
:100870000026002000230024002791F803C00CF07C
:100880000F0591F803C00CF0100CBCF1000F03D061
:1008900091F802C04CEA050591F800C0BCF1000FC8
:1008A00031D0146800202BE04FF0010C0CFA00F35B
:1008B000B1F800C00CEA03069E4220D183004FF03D
:1008C0000F0C0CFA03F7BC4305FA03FC4CEA0404D2
:1008D00091F803C0BCF1280F06D14FF0010C0CFABF
:1008E00000FCC2F814C00AE091F803C0BCF1480F44
:1008F00005D14FF0010C0CFA00FCC2F810C0401CEE
:100900000828D1D31460B1F800C0BCF1FF0F34DD6A
:10091000546800202EE000F1080C4FF0010808FA9E
:100920000CF3B1F800C00CEA03069E4221D183000B
:100930004FF00F0C0CFA03F7BC4305FA03FC4CEA2A
:10094000040491F803C0BCF1280F05D100F1080C94
:1009500008FA0CF8C2F8148091F803C0BCF1480FF3
:1009600007D100F1080C4FF0010808FA0CF8C2F8A2
:100970001080401C0828CED35460BDE8F0810246A8
:10098000002093680B400BB1012000E0002070476D
:10099000416170470161704710B50121042000F0EA
:1009A00055FA0121082000F051FA0121084600F013
:1009B0004DFA0121084600F039FA0121022000F029
:1009C00035FA00F0F3F800F02DF8FFF761FE00F0C3
:1009D000DBF800F005F800F0D5FD00F0FDF810BDE3
:1009E00008B50120ADF8000028208DF80300032091
:1009F0008DF8020069460948FFF736FF00210846D6
:100A0000FFF712FF0220ADF8000010208DF8030060
:100A100069460248FFF728FF08BD000000080140B2
:100A200000BFFEE708B54FF40050ADF800004820C5
:100A30008DF8030003208DF8020069460948FFF78E
:100A400013FF4FF40040ADF8000069460548FFF77A
:100A50000BFF4FF40060ADF8000069460248FFF755
:100A600003FF08BD000C01400008014038B54FF4F9
:100A700000513448FFF783FF8DF800004FF4004128
:100A80003048FFF77CFF8DF801004FF400612E48DD
:100A9000FFF775FF8DF802004FF400512948FFF76A
:100AA0006EFF04464FF400412648FFF768FF0440FC
:100AB0004FF400612448FFF762FF0440002C3FD14F
:100AC000142000F0CDFA4FF400511E48FFF757FFF5
:100AD00004464FF400411B48FFF751FF04404FF418
:100AE00000611948FFF74BFF0440002C28D100BFDC
:100AF0004FF400511348FFF742FF04464FF4004102
:100B00001048FFF73CFF04404FF400610E48FFF728
:100B100036FF0440002CEBD09DF8000018B90BA064
:100B200000F080FE0CE09DF8010018B90CA000F068
:100B300079FE05E09DF8020010B90EA000F072FEEB
:100B400038BD0000000C0140000801407072657360
:100B500073204C54206B65792E2E2E0A0000000065
:100B60007072657373204D44206B65792E2E2E0AAA
:100B7000000000007072657373205254206B657919
:100B80002E2E2E0A0000000008B54FF40060ADF8CC
:100B9000000028208DF8030003208DF8020069462C
:100BA0000148FFF761FE08BD000C014008B50420B4
:100BB000ADF8000010208DF8030003208DF802002E
:100BC00069460448FFF750FE04210248FFF7E2FEA1
:100BD00008BD00000008014008B510208DF8030092
:100BE000C002ADF8000003208DF8020069464948B4
:100BF000FFF73AFE10208DF803008002ADF80000E8
:100C000003208DF8020069464248FFF72DFE1820A8
:100C10008DF803004020ADF8000003208DF802009D
:100C200069463D48FFF720FE10208DF80300202084
:100C3000ADF8000003208DF8020069463648FFF742
:100C400013FE10208DF803004002ADF800000320D1
:100C50008DF8020069462F48FFF706FE18208DF830
:100C600003008020ADF8000003208DF802006946E3
:100C70002948FFF7F9FD10208DF80300C002ADF8F8
:100C8000000003208DF8020069462248FFF7ECFDC2
:100C900010208DF803008002ADF8000003208DF8CD
:100CA000020069461B48FFF7DFFD18208DF803009E
:100CB0000120ADF8000003208DF8020069461748B6
:100CC000FFF7D2FD10208DF80300C002ADF8000040
:100CD00003208DF8020069460E48FFF7C5FD10207D
:100CE0008DF803008002ADF8000003208DF80200AB
:100CF00069460848FFF7B8FD18208DF8030040202A
:100D0000ADF8000003208DF8020069460248FFF7A5
:100D1000ABFD08BD0010014000080140000C01407F
:100D200000BFFEE7704708B506208DF800000120DF
:100D30008DF803008DF8010002208DF8020068464E
:100D400000F002F808BD000070B5002100230F225A
:100D5000C47804B3154C246804F4E064C4F5E0647A
:100D6000210AC1F10403CA40447804FA03F18478EB
:100D70001440214309010E4C0678A155047804F073
:100D80001F050124AC4005786D11AD0005F1E0258B
:100D9000C5F8004109E0047804F01F050124AC40C7
:100DA000044D0678761145F8264070BD0CED00E044
:100DB00000E400E080E100E002490143024A1160E2
:100DC000704700000000FA050CED00E010B50028A7
:100DD00007DA0A07140E054A00F00F031B1FD4544C
:100DE00003E00A07130E024A135410BD18ED00E089
:100DF00000E400E008B51C208DF8000001208DF80B
:100E000003008DF8010002208DF802006846FFF70C
:100E10009BFF08BD10B54FF4A060FFF7CDFFFFF7B3
:100E2000E9FFFFF780FF10BD7047000029B1064AB7
:100E3000D2690243044BDA6104E0034AD269824377
:100E4000014BDA61704700000010024029B1064AE8
:100E500092690243044B9A6104E0034A9269824317
:100E6000014B9A61704700000010024030B500212C
:100E70000022002400232D4D6D6805F00C0121B1E6
:100E8000042905D0082923D105E0294D056022E079
:100E9000274D05601FE0254D6D6805F47012234D48
:100EA0006D6805F48034022505EB92421CB9214D92
:100EB000554305600BE01D4D6D6805F400351DB10F
:100EC0001C4D5543056002E0194D5543056002E095
:100ED000174D056000BF00BF144D6D6805F0F001AF
:100EE0000909154D6B5C0568DD4045600F4D6D6867
:100EF00005F4E061090A104D6B5C4568DD408560D2
:100F00000A4D6D6805F46051C90A0B4D6B5C45686C
:100F1000DD40C560054D6D6805F44041890B074D06
:100F20006B5CC568B5FBF3F5056130BD0010024090
:100F300000127A0000093D00140000202400002067
:100F4000704710B500F002F810BD00000CB500208D
:100F5000019000903348006840F4803031490860C7
:100F600000BF3048006800F4003000900198401C39
:100F70000190009818B90198B0F5A06FF1D12948F7
:100F8000006800F4003010B10120009001E0002062
:100F900000900098012843D12348006840F01000D9
:100FA000214908600846006820F0030008600846F0
:100FB000006840F0020008601A484068194948601B
:100FC0000846406848600846406840F480604860D1
:100FD0000846406820F47C1048600846406840F4A9
:100FE000E81048600846006840F08070086000BF64
:100FF0000C48006800F000700028F9D009484068EB
:1010000020F00300074948600846406840F00200AD
:10101000486000BF0348406800F00C000828F9D180
:101020000CBD0000001002400020024010B5044634
:10103000B4F1807F01D3012010BD24F07F40401E19
:101040004FF0E02148610F214FF0FF30FFF7BEFE67
:1010500000204FF0E0218861072008610020EBE7C5
:1010600070B504460F4800684FF47A71B0FBF1F692
:101070003046FFF7DBFF002508E000BF4FF0E0201F
:10108000006900F480300028F8D06D1CA542F4D32C
:101090004FF0E020006920F001004FF0E0210861EE
:1010A00070BD00000000002070B504460E480068C6
:1010B0000E49B0FBF1F63046FFF7B8FF002508E017
:1010C00000BF4FF0E020006900F480300028F8D025
:1010D0006D1CA542F4D34FF0E020006920F0010020
:1010E0004FF0E021086170BD0000002040420F0079
:1010F000704710B54FF4E0614FF0FF30FFF766FE28
:1011000010BD000010B51348006840F001001149FF
:10111000086008464068104908400E494860084683
:1011200000680E4908400B4908600846006820F432
:10113000802008600846406820F4FE0048604FF4B4
:101140001F008860FFF7FDFE4FF000600449086053
:1011500010BD0000001002400000FFF8FFFFF6FE87
:1011600008ED00E010B50121880700F073F858B1D0
:101170004FF07E5105480068FEF7D4FF0349086030
:101180000121880700F054F810BD00002C00002059
:101190000EB50020ADF80600ADF802004720ADF80E
:1011A00000004FF6FE70ADF8040069464FF0804035
:1011B00000F090F900214FF0804000F03CF80EBDA7
:1011C00000B587B00020ADF81600ADF8120047203A
:1011D000ADF810004FF6FE70ADF8140004A91348E6
:1011E00000F078F90021114800F025F86020ADF8F2
:1011F00000000020ADF80800ADF80C000120ADF8AB
:1012000002000020ADF806006946084800F034F8F6
:101210006946064800F07CF86946044800F0CAF8C0
:101220006946024800F016F907B000BD000400400E
:10123000CA430282704721B1028842F00102028053
:1012400004E002884FF6FE731A40028070470146A0
:10125000888C704730B50246002000230024158A90
:1012600005EA0103958905EA010413B10CB10120D7
:1012700000E0002030BD000070B5002400220023F3
:10128000058C4FF6FE7635400584028C8388048BEE
:101290004FF68F752C40B51E2C400D882C43751EC3
:1012A0002A400D892A434D882A43144DA8420BD069
:1012B000134DA84208D0134DA84205D0124DA842A4
:1012C00002D0124DA84213D14FF6F7752A404D892E
:1012D0002A434FF6FB752A408D882A434FF6FF6557
:1012E0002B404FF6FF552B408D892B43CD892B4347
:1012F00083800483CD888586028470BD002C0140E4
:1013000000340140004001400044014000480140D9
:1013100070B5002400220023058C4FF6EF7635408F
:101320000584028C8388048B48F6FF752C404FF6A9
:10133000FF452C400D884FF6FF7606EA05252C4325
:101340004FF6DF752A400D8906EA05152A434D88B8
:1013500006EA05152A43154DA84202D0144DA842AD
:101360001DD14FF67F752A404D894FF6FF7606EA6C
:1013700005152A434FF6BF752A408D8806EA0515E4
:101380002A434FF6FF352B404FF2FF752B408D89D6
:1013900006EA85052B43CD8906EA85052B43838024
:1013A0000483CD880587028470BD0000002C0140B5
:1013B0000034014070B5002400220023058C4FF654
:1013C000FF6635400584028C8388848B4FF68F75C9
:1013D0002C404FF6FC752C400D882C434FF6FF55E2
:1013E0002A400D894FF6FF7606EA05252A434D88E7
:1013F00006EA05252A43154DA84202D0144DA842FD
:101400001DD14FF2FF752A404D894FF6FF7606EA4F
:1014100005252A434FF6FF352A408D8806EA052523
:101420002A434EF6FF752B404DF6FF752B408D89F4
:1014300006EA05152B43CD8906EA05152B43838063
:101440008483CD888587028470BD0000002C014014
:101450000034014070B5002200230024058C4EF6B4
:10146000FF7635400584038C8488828B48F6FF75AF
:101470002A404FF6FF452A400D884FF6FF7606EAD0
:1014800005252A434DF6FF752B400D8906EA0535E3
:101490002B434D8806EA05352B430B4DA84202D05D
:1014A0000A4DA84208D14BF6FF752C408D894FF6A6
:1014B000FF7606EA85152C4384808283CD88A0F8C8
:1014C0004050038470BD0000002C014000340140F6
:1014D00081847047002202881D4B98420ED01D4B1C
:1014E00098420BD0B0F1804F08D01B4B984205D0EA
:1014F0001A4B984202D01A4B984204D14FF68F7380
:101500001A404B881A43174B984207D0164B984203
:1015100004D04FF6FF431A40CB881A4302808B88D1
:1015200083850B8803850A4B98420BD0094B984260
:1015300008D00E4B984205D00D4B984202D00D4B6F
:10154000984201D10B7A0386012383827047000001
:10155000002C01400034014000040040000800401D
:10156000000C00400010004000140040004001400A
:10157000004401400048014010B5FFF709FEFFF7A5
:101580001FFE10BD08B518208DF803004FF4007041
:10159000ADF8000003208DF8020069460848FFF707
:1015A00063F928208DF803004FF48060ADF8000047
:1015B00003208DF8020069460148FFF755F908BD80
:1015C000000801401FB501218803FFF73FFC4FF4DD
:1015D000E13000900020ADF80C000C20ADF80A00BE
:1015E0000020ADF80800ADF80600ADF8040069462B
:1015F000064800F04BF80121044800F009F80122E8
:1016000040F22551014800F01CF81FBD0038014090
:1016100021B1828942F40052828104E082894DF630
:10162000FF731A408281704702460020B1F5007FA7
:1016300000D100BF13880B400BB1012000E0002057
:101640007047F0B50346002400260025002040F630
:101650006A17B94200D100BF1846C1F3421401F025
:101660001F06012707FA06F5012C01D10C3004E012
:10167000022C01D1103000E014301AB107682F435A
:10168000076002E00768AF430760F0BD2DE9F0474F
:1016900086B005460E460024A24600BFA14600279C
:1016A000B08900B100BF2F462C8A4CF6FF70044071
:1016B000F08804432C82AC894EF6F3100440B088C5
:1016C00031890843718908430443AC81AC8A4FF6E1
:1016D000FF400440B0890443AC8201A8FFF7C6FB79
:1016E0001F48874202D1DDF810A001E0DDF80CA010
:1016F000A88900F4004040B10AEBCA0000EB0A10D0
:1017000031684900B0FBF1F807E00AEBCA0000EBD2
:101710000A1031688900B0FBF1F86420B8FBF0F0E2
:1017200004012009642101FB1089A88900F400400C
:1017300040B1322000EBC900B0FBF1F000F007002F
:10174000044308E0322000EB09106421B0FBF1F003
:1017500000F00F0004432C8106B0BDE8F0870000C4
:1017600000380140C1F308028280704710B5FFF7CE
:1017700029FF10BD2DE9F047002500240DE000F001
:1017800033F800BF134800780028FBD112480168E5
:101790002846FEF7C7FC0546641C0A2CEFDB2846EA
:1017A000FEF776FE064600220C4BFEF7F5FD80465E
:1017B000FEF781FE05460A492846FEF70BFD064660
:1017C0004FF08041FEF738FD04460649FEF702FD62
:1017D000BDE8F087280000202C00002000002440F5
:1017E0000000AA430000C84210B500BF01210A480A
:1017F000FFF7C5F80028F9D102210748FFF7CAF81A
:101800001420FFF751FC02210348FFF7C1F8012023
:101810000249087010BD00000008014028000020A7
:1018200000BFFEE7014A024900F013B8A5180008FE
:101830003000002002E008C8121F08C1002AFAD1B7
:1018400070477047002001E001C1121F002AFBD140
:1018500070472DE9F04116460F460446002503E087
:101860003946B047641C6D1C20780028F8D1284602
:10187000BDE8F08110B500240FE04FF48050084916
:1018800008603220FFF7ECFB4FF480500449091F39
:1018900008606420FFF7E4FB641C032CEDDB10BD43
:1018A000140C014070B504460D460A2C03D129469C
:1018B0000D20FFF7F7FFA1B20548FFF753FF00BF68
:1018C00040210348FFF7B0FE0028F9D0204670BD44
:1018D00000380140FFF760F8FFF70BFCFFF746FF09
:1018E000FFF798FAFFF748FEFEF79AFF0BA0FFF705
:1018F00099FF12E0FFF7BAF8FFF73CFF04460A49E8
:10190000FEF7F6FD05D8042008490860FFF7B2FF8E
:1019100003E004200549091F0860EBE752756E6E6D
:10192000696E672E2E2E0A00000020411408014027
:10193000501900080000002034000000341800088E
:101940008419000834000020040400004418000832
:1019500000A24A040000000000000000010203048D
:101960000607080900000000010203040102030445
:101970000607080902040608000000000000000035
:041980000000000063
:0400000508000101ED
:00000001FF
