:020000040800F2
:10000000F00600200101000899100008390E0008D0
:1000100095100008210900083B1F0008000000009F
:10002000000000000000000000000000491500086A
:100030002D0A000800000000111400083516000801
:100040001B0100081B0100081B0100081B01000820
:100050001B0100081B010008310A00081B010008F1
:100060001B0100081B0100081B0100081B01000800
:100070001B0100081B0100081B010008950900086E
:100080001B0100081B0100081B0100081B010008E0
:100090001B0100081B0100081B010008AD0A000835
:1000A0001B0100081B0100081B0100081B010008C0
:1000B000A91600081B0100081B0100081B0100080D
:1000C0001B0100081B0100081B0100081B010008A0
:1000D0001B0100084D1C00081B0100081B01000843
:1000E0001B0100081B0100081B010008DFF80CD0F1
:1000F00000F0C0FB0048004759280008F006002027
:100100000648804706480047FEE7FEE7FEE7FEE7B1
:10011000FEE7FEE7FEE7FEE7FEE7FEE7491600081A
:10012000ED000008F0B480EA0102D40F4200B2EB07
:10013000410F02D20246084611464A0042D0C30D82
:10014000DDB2C1F3C752AD1A202D35DAC1F3160165
:1001500041F4000204B15242C5F1200602FA06F150
:100160002A411044B3EBD05F23D0C4B1012DA0EBE2
:10017000C35009DCF0BC4FF0004202EAC352DBB2CC
:1001800000F5000000F014BA400000F1807000EBB0
:10019000C350A0F1807040EAD170490009E04908DD
:1001A00041EAC071A0EBC35000F50000400800EB2D
:1001B000C350F0BC00F0F3B96142012202EB4101EF
:1001C000001BF6E7F0BC704781F00041AAE780F021
:1001D0000040A7E780EA010210B502F000434000AA
:1001E00022D04A001FD0010E01EB1261C0F356006D
:1001F000C2F3560240F4000042F40002A0FB0220C9
:1002000000047F39140400D0401C50EA124001D48D
:100210004000491EC2B20C0604EBD010401C40083E
:10022000802A02D003E0002010BD20F00100002948
:1002300000DA0020184310BD2DE9FE4F81EA0304C7
:1002400004F0004421F0004100944FF0000B23F033
:10025000004350EA01045ED052EA03045BD0C3F3CA
:100260000A54C1F30A552C44A4F2F3340194A0FBC0
:100270000254C1F3130141F48011C3F3130343F497
:10028000801301FB024400FB034E840A970A44EAF0
:10029000815447EA8357A4FB076802958D0A05FB42
:1002A00007854FEA932C04FB0C542705029D4FEA67
:1002B000065847EA1637B5EB08056EEB070C870EB4
:1002C000920E47EA811742EA8312A7FB0201B6EBBE
:1002D0000B0164EB00042B0D43EA0C335E1844EB76
:1002E0001C50DA465146E7FB0201C5F313044FEAFE
:1002F0000B3343EA14534FEA0432019C43EA0603EA
:10030000A4F10C040294009CCDE900B400F08DF936
:1003100003B0BDE8F08F00200146F9E72DE9F04D6C
:1003200081EA030404F0004B21F0004514464FF02D
:10033000000A23F0004150EA050220D054EA0102ED
:100340001DD0C5F30A570246C5F31303C1F31300CA
:10035000C1F30A5640F4801543F48013A7EB060856
:10036000101BD64608F2FD3873EB050002D308F1E6
:10037000010801E092185B41B8F1000F03DA002098
:100380000146BDE8F08D00204FF4801106468446FA
:100390000EE0171B73EB050705D3121B63EB050378
:1003A00006434CEA010C49084FEA300092185B41C1
:1003B00050EA0107EDD152EA030012D082EA0400AC
:1003C00083EA0501084305D0101BAB4106D2012288
:1003D000002306E000224FF0004302E06FF001022C
:1003E00053101AEB06004CEB085110EB0A0041EBDE
:1003F0000B01BDE8F04D00F009B9C10F80EAE070D3
:100400000844CA079623002100F0D2B896230022A0
:10041000114600F0CDB80EB540F2334102910021F3
:10042000CDE900110A460B4600F0FFF803B000BD0D
:1004300000F0004220F00040C10DC0F3160040F46F
:1004400000007F2901DA00207047962903DCC1F102
:100450009601C84001E096398840002AF4D0404215
:10046000704720F00040C10DC0F3160040F40000BA
:100470007F2901DA00207047962903DCC1F196013B
:10048000C840704796398840704700F0004230F00D
:1004900000400AD0C10D01F56071C0F3160042EAB8
:1004A0000151C208400711437047002001467047C0
:1004B00001F0004330B421F0004150EA010206D0BF
:1004C0000A0DA2F56072C1F31301002A02DC30BCF0
:1004D00000207047440F44EAC104C100E01830BC5A
:1004E00000EBC25000F05BB8002801DBC0F1004017
:1004F000002901DBC1F1004181427047002801DB86
:10050000C0F10040002901DBC1F100418842704781
:1005100030B50B46014600202022012409E021FAD3
:1005200002F59D4205D303FA02F5491B04FA02F5D0
:100530002844151EA2F10102F1DC30BD2DE9F05F67
:100540000546002092469B46884606468146402442
:100550001BE0284641464746224600F0ACF9534688
:100560005A46C01A914110D311461846224600F04F
:1005700093F92D1A67EB01084F462246012000210E
:1005800000F08AF917EB00094E41201EA4F1010486
:10059000DFDC484631462A464346BDE8F09F002945
:1005A000A8BF7047401C490008BF20F001007047F9
:1005B00010B4B0FA80FC00FA0CF050EA010404BF59
:1005C00010BC704749B1CCF1200421FA04F411FAAF
:1005D0000CF118BF012121430843A3EB0C01CB1DF3
:1005E0004FEA00614FEA102042BF002010BC704764
:1005F00000EBC35010440029A4BF10BC7047401C3E
:10060000490008BF20F0010010BC704710B5141E4F
:1006100073F1000408DA401C41F1000192185B41BB
:100620001A4301D120F0010010BD2DE9F04D924692
:100630009B4611B1B1FA81F202E0B0FA80F22032A9
:10064000904600F029F904460F4640EA0A0041EAC4
:100650000B0153465A46084313D0114653EA010092
:1006600019D0C8F14002504600F025F905460E4663
:1006700050465946424600F00FF9084305D0012084
:1006800004E020463946BDE8F08D0020054346EAE7
:10069000E0762C4337430A986305E40AA0EB080090
:1006A0000022FD0A44EA47540A3002D500200146E0
:1006B000E9E7010510196941DDE9084500196941BB
:1006C000BDE8F04DA2E72DE9FE4F804681EA030028
:1006D000C00F0C46009021F0004123F00045B8EB1C
:1006E0000200A94105D24046214690461C460B46D1
:1006F000024623F00040104347D0270DC7F30A00FD
:10070000C3F30A510290401A019040286BDAC3F3F8
:10071000130040F4801B0098924620B10023D2EBD6
:10072000030A63EB0B0B01985946C0F14002504697
:1007300000F0B2F806460D4650465946019A00F0C0
:10074000CAF810EB08006141002487EA115284EADC
:10075000E7731A4340D0009A62B3019A012A4FEA24
:10076000075215DC001B61EB02014FF0004202EA68
:100770000752CDE90042001C41F5801132462B465C
:10078000FFF753FF03B0BDE8F08F40462146F9E77D
:10079000001B61EB0201001C41F5801300185B4156
:1007A0002018A2F5001747EB030140EAD570B619EF
:1007B0006D4111E06D084FEA360645EAC0754FEA13
:1007C0000752001B61EB0201001C41F58011490832
:1007D0004FEA30000019514132462B4603B0BDE8C4
:1007E000F04FFFF713BF0098012240000023D0EB29
:1007F000020263EBE073009821464FEAE074B8EB25
:10080000000061EB0401E9E783F000435BE781F05E
:10081000004158E7C1F30A52C1F3130140F2FF331C
:1008200041F480119A4202DA00200146704740F2FA
:1008300033439A42A2F2334202DC524200F03BB808
:1008400000F02AB830B5041E71F1000404DB4FF04B
:100850000044404264EB0101141E73F1000405DB07
:100860001C464FF00043524263EB0403994208BF19
:10087000904230BD064C074D06E0E06840F00103B1
:1008800094E8070098471034AC42F6D3FFF732FCE7
:1008900088280008A8280008202A04DB203A00FA4B
:1008A00002F1002070479140C2F1200320FA03F3C7
:1008B000194390407047202A04DB203A21FA02F0C5
:1008C0000021704721FA02F3D040C2F1200291408A
:1008D000084319467047202A06DBCB17203A41FA15
:1008E00002F043EAE07306E041FA02F3D040C2F1BD
:1008F00020029140084319467047000008B54FF4A4
:100900008050ADF8000010208DF8030003208DF812
:1009100002006946014800F0B7F908BD000C01402B
:1009200000BFFEE74FF480600249086010200249D2
:1009300008607047100C0140100801404FF400405F
:100940000B4908614010486120200A4908600002F4
:1009500007494861400008490860082005490860C7
:100960004001091D08600001091F08607047000070
:100970000010014010080140140C0140044A10808E
:10098000121D1080121D1080121D10807047000073
:100990003404004010B54FF4003000F02FF878B167
:1009A0000021084800F01EF83221064800F03CF80B
:1009B0000121044800F016F84FF4003000F004F86C
:1009C00010BD00005800024000F0805111B10349F1
:1009D000086001E0024948607047000004040240DA
:1009E0000000024021B1026842F00102026004E00E
:1009F00002684FF6FE731A400260704701460020FD
:100A0000002201F0805313B1054B1A6801E0054B39
:100A10001A6802EA01030BB1012000E000207047D0
:100A2000000402400000024041607047704700002F
:100A30002DE9F041012000F0A3F858B300214FF058
:100A4000804001F07CF80121880700F0F3FE00BF30
:100A50000121114800F0A3F90028F9D100214FF03D
:100A6000804000F0E7FE4FF0804000F0EFFE80464F
:100A7000FFF7D1FC0646094A094BFFF7DDFB0446A8
:100A8000FFF716FD0749086000200749087001209C
:100A900000F070F8BDE8F081000801408DEDB5A0D0
:100AA000F7C6B03E1C0000201400002010B5202026
:100AB00000F066F850B1202000F05CF81B4908688F
:100AC0004FF07E51FFF72EFB18490860402000F0E0
:100AD00057F850B1402000F04DF8144948684FF0E5
:100AE0007E51FFF71FFB11494860802000F048F855
:100AF00050B1802000F03EF80C4988684FF07E51DC
:100B0000FFF710FB094988604FF4807000F038F857
:100B100058B14FF4807000F02DF80449C8684FF0C8
:100B20007E51FFF7FFFA0149C86010BDA002002006
:100B30001CB50120009000208DF8040008208DF8DD
:100B4000050001208DF80600684600F02DF81CBD58
:100B50001CB54FF4F070009001208DF806000020C5
:100B60008DF8040010208DF80500684600F01CF890
:100B70001CBD0000014908607047000014040140DA
:100B8000014600200022074B1B6803EA0102054BC7
:100B900014331B680B4013B10AB1012000E00020A0
:100BA0007047000000040140002123498279002A97
:100BB0003AD00A46126803689A430B461A600A1D27
:100BC000126803689A430B1D1A60027911440A687F
:100BD00003681A430A60184A0832126803689A4385
:100BE000154B08331A601A1D126803689A43124B9A
:100BF0000C331A604279102A0ED11A1F126803684A
:100C00001A430D4B08331A601A1D126803681A4301
:100C1000094B0C331A600DE00749427911440A6808
:100C200003681A430A6005E0027911440A68036800
:100C30009A430A60704700000004014010B5FFF7B6
:100C400077FFFFF785FF10BD30B500228B071C0F23
:100C50000F2303FA04F20B4B8C1053F82430934308
:100C6000084C8D1044F8253023468C1053F824305E
:100C70008C07240F00FA04F42343024C8D1044F82F
:100C8000253030BD080001402DE9F0410246002525
:100C90000026002000230024002791F803C00CF058
:100CA0000F0591F803C00CF0100CBCF1000F03D03D
:100CB00091F802C04CEA050591F800C0BCF1000FA4
:100CC00031D0146800202BE04FF0010C0CFA00F337
:100CD000B1F800C00CEA03069E4220D183004FF019
:100CE0000F0C0CFA03F7BC4305FA03FC4CEA0404AE
:100CF00091F803C0BCF1280F06D14FF0010C0CFA9B
:100D000000FCC2F814C00AE091F803C0BCF1480F1F
:100D100005D14FF0010C0CFA00FCC2F810C0401CC9
:100D20000828D1D31460B1F800C0BCF1FF0F34DD46
:100D3000546800202EE000F1080C4FF0010808FA7A
:100D40000CF3B1F800C00CEA03069E4221D18300E7
:100D50004FF00F0C0CFA03F7BC4305FA03FC4CEA06
:100D6000040491F803C0BCF1280F05D100F1080C70
:100D700008FA0CF8C2F8148091F803C0BCF1480FCF
:100D800007D100F1080C4FF0010808FA0CF8C2F87E
:100D90001080401C0828CED35460BDE8F081024684
:100DA000002093680B400BB1012000E00020704749
:100DB0000161704710B50121042000F04BFB0121B7
:100DC000082000F047FB0121102000F043FB012127
:100DD000084600F03FFB00F067F800F02FF8FFF73F
:100DE0008DFD00F04FF800F007F800F00FFF00F065
:100DF00093F800F06FF810BD08B50120ADF80000C1
:100E000028208DF8030003208DF802006946094868
:100E1000FFF73AFF00210846FFF716FF0220ADF862
:100E2000000010208DF8030069460248FFF72CFFF0
:100E300008BD00000008014000BFFEE708B54FF400
:100E40000050ADF8000048208DF8030003208DF815
:100E5000020069460948FFF717FF4FF40040ADF85C
:100E6000000069460548FFF70FFF4FF40060ADF83A
:100E7000000069460248FFF707FF08BD000C01406B
:100E80000008014008B54FF40060ADF800002820CC
:100E90008DF8030003208DF8020069460148FFF732
:100EA000F3FE08BD000C014008B50420ADF80000B9
:100EB00010208DF8030003208DF8020069460448D5
:100EC000FFF7E2FE04210248FFF772FF08BD0000B1
:100ED0000008014008B528208DF803004FF4F07099
:100EE000ADF8000003208DF8020069460948FFF7BD
:100EF000CBFE05210120FFF7A7FE06210120FFF709
:100F0000A3FE07210120FFF79FFE08210120FFF724
:100F10009BFE08BD000C014008B510208DF80300B1
:100F2000C002ADF8000003208DF802006946564863
:100F3000FFF7AAFE10208DF803008002ADF8000034
:100F400003208DF8020069464F48FFF79DFE1820E8
:100F50008DF803004020ADF8000003208DF802005A
:100F600069464A48FFF790FE10208DF803002020C4
:100F7000ADF8000003208DF8020069464348FFF7F2
:100F800083FE10208DF803004002ADF8000003201E
:100F90008DF8020069463C48FFF776FE18208DF870
:100FA00003008020ADF8000003208DF802006946A0
:100FB0003648FFF769FE10208DF803008002ADF877
:100FC000000003208DF8020069463148FFF75CFEFF
:100FD00010208DF803000820ADF8000003208DF8E4
:100FE000020069462948FFF74FFE18208DF80300DC
:100FF0000120ADF8000003208DF802006946244866
:10100000FFF742FE10208DF803000001ADF800004C
:1010100003208DF8020069461C48FFF735FE1020BA
:101020008DF803000002ADF8000003208DF80200E7
:1010300069461648FFF728FE18208DF803000220A5
:10104000ADF8000003208DF8020069461048FFF754
:101050001BFE10208DF803008001ADF80000032076
:101060008DF8020069460A48FFF70EFE10208DF841
:101070000300ADF8000003208DF802006946034824
:10108000FFF702FE08BD000000100140000801400B
:10109000000C014000BFFEE7704708B506208DF840
:1010A000000001208DF8030002208DF801000120CE
:1010B0008DF80200684600F013F808BD08B5172047
:1010C0008DF8000001208DF8030002208DF801004A
:1010D00001208DF80200684600F002F808BD00000B
:1010E00070B5002100230F22C47804B3154C246886
:1010F00004F4E064C4F5E064210AC1F10403CA40C9
:10110000447804FA03F184781440214309010E4C19
:101110000678A155047804F01F050124AC40057839
:101120006D11AD0005F1E025C5F8004109E0047836
:1011300004F01F050124AC40044D0678761145F8F3
:10114000264070BD0CED00E000E400E080E100E02E
:1011500002490143024A1160704700000000FA058D
:101160000CED00E010B5002807DA0A07140E054A56
:1011700000F00F031B1FD45403E00A07130E024AAA
:10118000135410BD18ED00E000E400E008B51C2089
:101190008DF8000001208DF8030002208DF8010079
:1011A00001208DF802006846FFF79AFF08BD08B5D8
:1011B00025208DF8000001208DF8030002208DF815
:1011C000010001208DF802006846FFF789FF0F201B
:1011D0008DF800006846FFF783FF08BD10B54FF497
:1011E000A060FFF7B5FFFFF7D1FFFFF756FFFFF74E
:1011F000DEFFFFF763FF10BD0F49104A11600021A9
:101200000F4A11600F4A1160002011E000210E4AC0
:1012100042F820100D4A42F820100D4A42F82010E2
:101220000C4A42F820100C4A42F82010411CC8B267
:101230000428EBDB704700000000A0402C000020D9
:101240003000002034000020A0020020B002002066
:10125000C0020020D0020020E00200202DE9F05F53
:1012600005462846FFF7D2F806463B480168304657
:10127000FEF7AAFF39490860394801684FF08040FD
:10128000FEF7A8FF8346354801685846FEF79FFFE2
:101290008246344801685046FEF744FF8146324892
:1012A00001684846FEF796FF06462C4801682F481D
:1012B0000068FEF78FFF8246294A1168274A1068A6
:1012C000FEF782FF83462A4801685846FEF782FFF0
:1012D00081465146FEF726FF07463146FEF722FFBC
:1012E0000446244801682046FEF71CFF04461C48BB
:1012F00000681C49086019480068194908601D48C1
:1013000004602046FFF794F80646FFF776F880461B
:101310004046FFF7BAF8064632460B4616A000F0E4
:101320000FFE18494046FFF7E9F804D840F2E730CD
:10133000FFF724FB0EE000214046FFF7D5F803D865
:101340000020FFF71BFB05E04046FFF78AF8064642
:10135000FFF714FBBDE8F09FA0020020B0020020C0
:10136000C0020020D0020020340000203000002005
:101370002C000020E002002064756B3A20252E32FC
:10138000660A000000C0794410B50246002003E060
:1013900013780344D8B2521C0B1EA1F10101F7D1FE
:1013A00010BD0000F0B504794568467AD0F80A10FF
:1013B000D0F80E20D0F81230034F3960034F3A6056
:1013C000034F3B60F0BD00002C00002030000020E7
:1013D0003400002070B504460D460B480B490860E8
:1013E000084604710F20C1F8050002204872084623
:1013F000C0F80A500E21FFF7C7FF044988730F2178
:10140000024800F08BFC70BD535A48593C02002042
:101410007047000029B1064A52690243044B5A61E1
:1014200004E0034A52698243014B5A61704700004D
:101430000010024029B1064AD2690243044BDA6126
:1014400004E0034AD2698243014BDA61704700002D
:101450000010024029B1064A92690243044B9A6186
:1014600004E0034A92698243014B9A61704700008D
:101470000010024030B500210022002400232D4D31
:101480006D6805F00C0121B1042905D0082923D18C
:1014900005E0294D056022E0274D05601FE0254D40
:1014A0006D6805F47012234D6D6805F480340225D3
:1014B00005EB92421CB9214D554305600BE01D4DD3
:1014C0006D6805F400351DB11C4D5543056002E003
:1014D000194D5543056002E0174D056000BF00BF80
:1014E000144D6D6805F0F0010909154D6B5C056838
:1014F000DD4045600F4D6D6805F4E061090A104D4F
:101500006B5C4568DD4085600A4D6D6805F460518F
:10151000C90A0B4D6B5C4568DD40C560054D6D68C3
:1015200005F44041890B074D6B5CC568B5FBF3F5CD
:10153000056130BD0010024000127A0000093D0034
:101540000000002010000020704710B500F002F8E5
:1015500010BD00000CB500200190009033480068D9
:1015600040F480303149086000BF3048006800F422
:10157000003000900198401C0190009818B9019823
:10158000B0F5A06FF1D12948006800F4003010B127
:101590000120009001E0002000900098012843D134
:1015A0002348006840F010002149086008460068A0
:1015B00020F0030008600846006840F00200086060
:1015C0001A4840681949486008464068486008461B
:1015D000406840F4806048600846406820F47C1011
:1015E00048600846406840F4E810486008460068D3
:1015F00040F08070086000BF0C48006800F0007088
:101600000028F9D00948406820F0030007494860E5
:101610000846406840F00200486000BF0348406848
:1016200000F00C000828F9D10CBD000000100240A9
:1016300000200240704710B54FF4E0614FF0FF30DA
:10164000FFF790FD10BD000010B51348006840F092
:1016500001001149086008464068104908400E49D9
:101660004860084600680E4908400B490860084673
:10167000006820F4802008600846406820F4FE00DE
:1016800048604FF41F008860FFF75FFF4FF0006075
:101690000449086010BD0000001002400000FFF87F
:1016A000FFFFF6FE08ED00E02DE9F0470121880775
:1016B00000F0CFF8002830D00121880700F0B7F8FB
:1016C00017480068401C16490860142825D315499E
:1016D0000868FEF7DAFE06460022134BFEF71EFEF0
:1016E00004460022114BFEF7A7FD8046FEF7E0FE00
:1016F0000C4908600868FEF7B4FE04462146012044
:10170000FFF768FE6420FFF7A9FD00200549086087
:1017100048608860C86002490860BDE8F087000042
:1017200018000020A0020020000034400070A740F4
:101730000EB50020ADF80600ADF802004720ADF868
:10174000000040F2E730ADF8040069464FF08040F9
:1017500000F0F8F90121880700F06CF80122114629
:10176000900700F087F80121880700F05DF801215B
:10177000880700F04DF80EBD00B587B00020ADF829
:101780001600ADF812004720ADF8100040F2E73027
:10179000ADF8140004A91D4800F0D4F901211B483C
:1017A00000F048F86020ADF800000020ADF8080017
:1017B000ADF80C000120ADF802000020ADF80600E5
:1017C0006946124800F060F86946104800F0B2F827
:1017D00069460E4800F00EF969460C4800F064F9BD
:1017E00001210A4800F014F80821084800F098F890
:1017F0000821064800F0F0F80821044800F04AF9F2
:101800000821024800F08EF907B000BD0004004036
:1018100021B1028842F08002028004E002884FF683
:101820007F731A4002807047CA4302827047CA43DE
:101830000282704721B1028842F00102028004E076
:1018400002884FF6FE731A40028070470146888C6A
:10185000704730B50246002000230024158A05EAAF
:101860000103958905EA010413B10CB1012000E0E0
:10187000002030BD1AB183890B43838102E0838944
:101880008B4383817047000070B500240022002341
:10189000058C4FF6FE7635400584028C8388048BD8
:1018A0004FF68F752C40B51E2C400D882C43751EAD
:1018B0002A400D892A434D882A43144DA8420BD053
:1018C000134DA84208D0134DA84205D0124DA8428E
:1018D00002D0124DA84213D14FF6F7752A404D8918
:1018E0002A434FF6FB752A408D882A434FF6FF6541
:1018F0002B404FF6FF552B408D892B43CD892B4331
:1019000083800483CD888586028470BD002C0140CD
:1019100000340140004001400044014000480140C3
:101920000A460021018B4FF6F773194011430183DA
:101930007047000070B5002400220023058C4FF68C
:10194000EF7635400584028C8388048B48F6FF755A
:101950002C404FF6FF452C400D884FF6FF7606EAE7
:1019600005252C434FF6DF752A400D8906EA05153B
:101970002A434D8806EA05152A43154DA84202D090
:10198000144DA8421DD14FF67F752A404D894FF660
:10199000FF7606EA05152A434FF6BF752A408D8863
:1019A00006EA05152A434FF6FF352B404FF2FF7527
:1019B0002B408D8906EA85052B43CD8906EA8505EE
:1019C0002B4383800483CD880587028470BD00008B
:1019D000002C0140003401400A460021018B4FF2E7
:1019E000FF7319404FF6FF7303EA02231943018383
:1019F0007047000070B5002400220023058C4FF6CC
:101A0000FF6635400584028C8388848B4FF68F7582
:101A10002C404FF6FC752C400D882C434FF6FF559B
:101A20002A400D894FF6FF7606EA05252A434D88A0
:101A300006EA05252A43154DA84202D0144DA842B6
:101A40001DD14FF2FF752A404D894FF6FF7606EA09
:101A500005252A434FF6FF352A408D8806EA0525DD
:101A60002A434EF6FF752B404DF6FF752B408D89AE
:101A700006EA05152B43CD8906EA05152B4383801D
:101A80008483CD888587028470BD0000002C0140CE
:101A9000003401400A460021818B4FF6F77319404C
:101AA000114381837047000070B500220023002499
:101AB000058C4EF6FF7635400584038C8488828B36
:101AC00048F6FF752A404FF6FF452A400D884FF62D
:101AD000FF7606EA05252A434DF6FF752B400D8952
:101AE00006EA05352B434D8806EA05352B430B4D99
:101AF000A84202D00A4DA84208D14BF6FF752C40EF
:101B00008D894FF6FF7606EA85152C438480828303
:101B1000CD88A0F84050038470BD0000002C014027
:101B2000003401400A460021818B4FF2FF731940B7
:101B30004FF6FF7303EA02231943818370478184C0
:101B400070470000002202881D4B98420ED01D4BAA
:101B500098420BD0B0F1804F08D01B4B984205D073
:101B60001A4B984202D01A4B984204D14FF68F7309
:101B70001A404B881A43174B984207D0164B98428D
:101B800004D04FF6FF431A40CB881A4302808B885B
:101B900083850B8803850A4B98420BD0094B9842EA
:101BA00008D00E4B984205D00D4B984202D00D4BF9
:101BB000984201D10B7A038601238382704700008B
:101BC000002C0140003401400004004000080040A7
:101BD000000C004000100040001400400040014094
:101BE000004401400048014010B501210846FFF7BC
:101BF00021FC01210220FFF71DFC01210420FFF739
:101C000019FCFFF795FDFFF7B7FD10BD08B51820CB
:101C10008DF803004FF40070ADF8000003208DF83C
:101C2000020069460848FFF72FF804208DF80300EA
:101C30000002ADF8000003208DF80200694602485A
:101C4000FFF722F808BD00000008014010B540F27F
:101C50002551184800F0A9F850B340F22551154815
:101C600000F07BF8134800F05BF904461248027854
:101C70000078401C104B187010488454007853288A
:101C800015D10E4840785A2811D10C488078482840
:101C90000DD10A48C078592809D11846007817286C
:101CA00005DB0648FFF77EFB00200349087000BFF4
:101CB00010BD000000380140200000203C00002042
:101CC0001FB501218803FFF7C5FB01210846FFF777
:101CD000A1FB4FF4E13000900020ADF80C000C2087
:101CE000ADF80A000020ADF80800ADF80600ADF828
:101CF00004006946084800F0A7F82021064800F0D3
:101D000023F80121044800F037F8012240F2255160
:101D1000014800F074F81FBD0038014070B5054659
:101D20000E4600240BE0295D064800F0FEF800BFD7
:101D30008021044800F02CF80028F9D0641CB4423B
:101D4000F1D370BD0038014001F40072B2F5007F9C
:101D500000D100BFCA430280704710B500220023A3
:101D600040F66A14A14200D100BF0A120124944037
:101D7000A3B2DC43048010BD21B1828942F4005239
:101D8000828104E082894DF6FF731A408281704798
:101D900002460020B1F5007F00D100BF13880B4040
:101DA0000BB1012000E00020704770B5024600240E
:101DB00000230025002040F66A16B14200D100BF82
:101DC000C1F3421501F01F03012606FA03F3012DAA
:101DD00002D19689334006E0022D02D1168A3340A3
:101DE00001E0968A33400C12012606FA04F41688A4
:101DF000344013B10CB1012000E0002070BDF0B5FB
:101E00000346002400260025002040F66A17B94248
:101E100000D100BF1846C1F3421401F01F0601278C
:101E200007FA06F5012C01D10C3004E0022C01D197
:101E3000103000E014301AB107682F43076002E049
:101E40000768AF430760F0BD2DE9F04786B005464F
:101E50000E460024A24600BFA1460027B08900B16B
:101E600000BF2F462C8A4CF6FF700440F0880443D4
:101E70002C82AC894EF6F3100440B08831890843B7
:101E8000718908430443AC81AC8A4FF6FF4004409B
:101E9000B0890443AC8201A8FFF7ECFA1F488742DF
:101EA00002D1DDF810A001E0DDF80CA0A88900F453
:101EB000004040B10AEBCA0000EB0A10316849004B
:101EC000B0FBF1F807E00AEBCA0000EB0A1031683A
:101ED0008900B0FBF1F86420B8FBF0F004012009A0
:101EE000642101FB1089A88900F4004040B1322030
:101EF00000EBC900B0FBF1F000F00700044308E07C
:101F0000322000EB09106421B0FBF1F000F00F006B
:101F100004432C8106B0BDE8F08700000038014082
:101F200001468888C0F308007047C1F30802828028
:101F3000704710B5FFF7C4FE10BD00BFFEE70000FC
:101F40000FB4054B10B503A9044A029800F0DAF863
:101F500010BC5DF814FB0000352800083800002094
:101F600002E008C8121F08C1002AFAD17047704762
:101F7000002001E001C1121F002AFBD170470000C0
:101F80002DE9FF5F82B00021DDE90430020DDDF8AC
:101F900040B0034318D044F61050A2F2FF3242433F
:101FA0001514119801281FD0A5EB0B00401C5FEA07
:101FB000000A4FF000064E4FDFF83891B046504609
:101FC00015D5CAF1000413E0119801244AA3012891
:101FD00001D16FEA0B010298119AC0E90031C0E902
:101FE000024206B0BDE8F09FCBF10000DFE70446F7
:101FF0000021404A491842EB0450CDE9001012E09C
:10200000E00707D032463B4640464946FEF714F902
:102010008046894632463B4610461946FEF70CF983
:1020200006460F466410002CEAD1DDE90401DDE923
:102030000023BAF1000F06DAFEF7FEF842464B46DF
:10204000FEF7FAF805E0FEF769F942464B46FEF75F
:1020500065F904460E460022284BFEF7F3FB03D831
:102060004FF0FF30014607E00022254B2046314665
:10207000FEF729FBFEF7CEFB102409E0002C0ADB5B
:102080000A220023FEF75AFA039B30321A55641EC7
:1020900050EA0102F2D1641C039AC4F11103144402
:1020A000119A012A03D0012208430DD10AE0084306
:1020B00004D000204FF0110B119072E7A3EB0B0539
:1020C0006D1E0DE05B4504DD4FF0000205F10105DA
:1020D00004E003DA4FF00002A5F10105002AECD07C
:1020E00002981199C0E90231C0E9004579E7000082
:1020F000000014400000F03F300000000000F043FA
:102100000000E03F2DE9FF4F95B09B46894606460B
:1021100000250FE2252877D100242746F84A01211F
:10212000059400E0044316F8013F203B01FA03F058
:102130001042F7D130782A2811D06FF02F03307871
:10214000A0F13002092A16D8059A44F0020402EBE5
:10215000820203EB42021044761C0590EFE759F827
:10216000042B0592002A03DA504244F400540590EF
:1021700044F00204761C30782E2816D116F8010F90
:1021800044F004042A280DD06FF02F023078A0F11B
:102190003003092B09D807EB870302EB4303C71869
:1021A000761CF3E759F8047B761C30786C280FD046
:1021B00006DC4C2817D068280DD06A2814D104E01A
:1021C000742810D07A280FD10DE044F400140AE0EE
:1021D00044F4801401E044F440147278824202D145
:1021E00004F58014761C761C307866280BD013DC3E
:1021F000582877D009DC002875D04528F6D0462825
:10220000F4D047281AD19DE118E0632835D064281E
:1022100079D0652812D195E1702873D008DC672841
:10222000F1D069286FD06E280DD06F2806D1B5E0A7
:1022300073282CD0752875D0782874D05A461799F1
:1022400090476D1C75E1C4F30250022809D00328A1
:102250000DD0D9F8001004280DD00D6009F1040943
:1022600067E1D9F80010EA17C1E90052F6E7D9F89A
:1022700000100D80F2E70D70F0E719F8041B8DF8DF
:10228000001000208DF80100EA46012003E059F813
:1022900004AB4FF0FF3061074FF0000102D40DE0B6
:1022A00008F101018846B9420FDA8045F8DB1AF8D7
:1022B00008100029F4D108E008F1010188468142A4
:1022C000FADB1AF808100029F6D105985B46A0EB56
:1022D000080721463846179A00F094FA284400EB84
:1022E000080507E04DE029E10DE01AF8010B5A4618
:1022F00017999047B8F10108F7D25B462146384656
:10230000179A13E142E00A220092C4F302524FF0FE
:10231000000A022A08D059F804CB032A4FEAEC71CC
:102320000AD00DE029E02AE009F1070121F00702B7
:10233000F2E802C1914609E00FFA8CFC4FEAEC7119
:10234000042A03D14FFA8CFC4FEAEC71002907DA1A
:102350000A460021DCF1000C61EB02012D2202E0B3
:10236000220504D52B228DF80420012203E0E20788
:1023700001D02022F7E7904659E00A2102E010221E
:102380000DE010214FF0000A00910BE010224FF0F9
:10239000000A44F004040827009203E008224FF0EA
:1023A000000A0092C4F30252022A05D059F804CB65
:1023B0000021032A08D009E009F1070121F00702F2
:1023C000F2E802C1914605E01FFA8CFC042A01D113
:1023D0000CF0FF0C4FF00008220728D5702806D01B
:1023E000009B83F0100353EA0A0305D00EE040225D
:1023F0008DF80420012208E05CEA010206D03022B8
:102400008DF804208DF8050002229046009B83F091
:10241000080353EA0A030AD15CEA010201D1620708
:1024200005D530228DF804204FF001087F1E582872
:1024300004D034A003900EA802900DE036A0F9E776
:1024400053466046009AFEF779F884460398825C0A
:102450000298401E029002705CEA0100F0D10298DE
:1024600006A9081A00F1200A600702D524F4803476
:1024700000E00127574502DDA7EB0A0000E000203D
:1024800000EB0A01009005984144401A0590E003D2
:1024900006D45B462146179A059800F0B3F9054427
:1024A000002706E001A85A46C05D179990476D1CA9
:1024B0007F1C4745F6DBE0030CD55B462146179AA7
:1024C000059800F09FF9054404E030205A4617991A
:1024D00090476D1C0099481E00900029F5DC08E02B
:1024E000029802995A460078491C02911799904720
:1024F0006D1CBAF10001AAF1010AF1DC65E10000EE
:1025000009280100303132333435363738396162C9
:10251000636465660000000030313233343536378D
:1025200038394142434445460000000000F058F964
:102530000544761C307800287FF4ECAD19B02846AD
:10254000BDE8F08F620700D4062709F1070222F0E8
:10255000070CFCE80223E14603F000485FEA080CA0
:1025600002D00FF2702C0DE05FEA045C02D50FF28E
:10257000682C07E05FEAC47C02D00FF2602C01E017
:10258000AFF2700C4FF0FF3823F00043CDF850C08D
:1025900065280CD006DC452809D046281DD04728E0
:1025A0003DD13DE0662818D067287ED138E0002173
:1025B000112F01DB112000E0781CCDE9000106A9F4
:1025C0000EA8FFF7DDFCDDE90F010E9A0391002153
:1025D000009207F1010A04914DE04FF0004000978E
:1025E000CDE9011006A90EA8FFF7CAFCDDE90F022C
:1025F00003920E9B11990022DDF80CA00093049227
:1026000011B9791C00EB010AB7EB0A0004D4C0F140
:10261000FF3007F1010A0490AAEB0700019044E0A3
:10262000012F00DA01270021112F01DD112000E028
:102630003846CDE9000106A90EA8FFF7A1FCDDE9A7
:102640000F010E9A0391002104910092BA462107CE
:102650000CD40399514500DA8A46BAF1010F05DD21
:10266000009AAAF10101515C302908D0B84202DA7F
:1026700010F1040F06DA0121CDE9011015E0AAF1ED
:102680000101E9E7002805DC049901440491AAEB63
:10269000000102E0411C514500DD8A460499401AC0
:1026A000401C01904FF000400290200704D4019894
:1026B000504501DBCDF8048000208DF84F000298D2
:1026C0000DF14F07B0F1004F25D02B200E9002984E
:1026D0004FF0020800280CDA404202902D200E90A4
:1026E00007E00A210298FDF713FF3031029007F846
:1026F000011DB8F10001A8F10108F2DC02980028E0
:10270000EFD1791E0E980870307800F0200040F06C
:10271000450007F8020D12A8C01B00F10708149825
:10272000007800B1012000EB0A01019801EBE07193
:1027300005984144401A401E0590E00306D45B46CC
:102740002146179A059800F05DF805441498007822
:1027500018B15A46179990476D1CE00324D55B4683
:102760002146179A059800F04DF805441CE004989E
:10277000002807DBDDE90301884203DD0098405CA7
:10278000179901E0179930205A469047049805F1AF
:102790000105401C04900198401E019004D12E2098
:1027A0005A46179990476D1CBAF10001AAF1010A27
:1027B000DDDC05E017F8010B5A46179990476D1CB0
:1027C000B8F10001A8F10108F4DC5B462146179A34
:1027D0000598ABE62D0000002B0000002000000053
:1027E0002DE9F041044600251E461746880404D40E
:1027F00005E039462020B0476D1C641EF9D52846F7
:10280000BDE8F0812DE9F041044600251E469046C2
:10281000C80301D5302700E02027880404D505E04F
:1028200041463846B0476D1C641EF9D52846BDE8C0
:10283000F081000070B504460D46E1B20548FFF78F
:1028400074FB00BF80210348FFF7A2FA0028F9D0EB
:10285000204670BD00380140FEF7ACFAFEF7EBFEF3
:10286000FEF7BCFCFFF765FBFFF7BEF9FEF7E6F9E4
:10287000FEF758F8FEF7C0FCFEF760F84FF47A70E8
:10288000FEF77CF800BFFEE7A82800080000002043
:102890003C000000601F0008E42800083C00002005
:1028A000B4060000701F00080000000001020304CD
:1028B00001020304060708090204060800000000DC
:1028C0000000000000000000000000000000000008
:1028D00000000000000000000000000000000000F8
:0428E00000000000F4
:0400000508000101ED
:00000001FF
